:100000000C9435000C945D000C945D000C945D0024
:100010000C945D000C945D000C945D000C945D00EC
:100020000C945D000C945D000C945D000C945D00DC
:100030000C945D000C945D000C945D000C945D00CC
:100040000C945D000C945D000C945D000C945D00BC
:100050000C945D000C945D000C945D000C945D00AC
:100060000C945D000C945D00F70311241FBECFEFCC
:10007000D8E0DEBFCDBF11E0A0E0B1E0E6EBFDE0EF
:1000800002C005900D92A031B107D9F711E0A0E1AF
:10009000B1E001C01D92A831B107E1F710E0CAE656
:1000A000D0E004C02297FE010E94FE03C836D107AB
:1000B000C9F70E94D6020C94D9060C94000084B1B2
:1000C0008C6284B92498529A2A9A85B1877D85B921
:1000D0008CB580618CBD8CB580648CBD08958CB569
:1000E0008F7B8CBD08959CB5937F892B8CBD089523
:1000F0009CB5282F23709C7F922B9CBD2DB590E042
:1001000095958795959587958170922F9E7F892BE0
:100110008DBD0895CF93DF930F92CDB7DEB7FC016D
:1001200081E0838383E08483CE0101969683858377
:100130000F90DF91CF910895222379F0A62FB72F4A
:10014000E42FF52F80E09D919EBD0DB407FEFDCFFD
:100150009EB591938F5F8217B1F70895442361F0A4
:10016000E62FF72F80E091919EBD0DB407FEFDCFE5
:100170009EB58F5F8417B9F70895299A0895299835
:1001800008952A9A0895CF93DF93EC0184B1866095
:1001900084B9CE010E94BF00CE010E94C1000E941E
:1001A0005F00DF91CF9108952A980895CF93DF9350
:1001B000EC010E94D40082EE8EBD0DB407FEFDCF8F
:1001C0008EB5CE010E94C100DF91CF910895EF92CC
:1001D000FF920F931F93CF93DF938C01C62F7A0169
:1001E000D22F0E94D400CF71C062CEBD0DB407FEE5
:1001F000FDCF8EB5C801B7014D2F0E94AE00C801DA
:100200000E94C100DF91CF911F910F91FF90EF905D
:1002100008950F931F93CF93DF93EC018B016AE056
:10022000A80125E00E94E700CE0160E1A80125E0D9
:100230000E94E700DF91CF911F910F9108950F93D6
:100240001F93CF93DF93EC018B010E94BF00CE017F
:100250006BE0A80125E00E94E700CE010E94BD00EE
:10026000DF91CF911F910F910895EF92FF920F931D
:100270001F93CF93DF938C01C62F7A01D22F0E9458
:10028000D400CF71CEBD0DB407FEFDCF8EB5C80131
:10029000B701A7012D2F0E949C00C8010E94C10038
:1002A000DF91CF911F910F91FF90EF900895CF9321
:1002B000DF930F92CDB7DEB767E0AE014F5F5F4FC0
:1002C00021E00E94350189810F90DF91CF9108953F
:1002D000CF93DF930F92CDB7DEB767E1AE014F5FEB
:1002E0005F4F21E00E943501898181700F90DF917D
:1002F000CF910895CF93DF93EC010E94570186FDC3
:1003000008C0CE010E94680191E0882319F090E0B6
:1003100001C091E0892FDF91CF9108950F931F9332
:10032000CF93DF93EC01062F142F0E94D4000F719E
:1003300000620EBD0DB407FEFDCF8EB51EBD0DB41F
:1003400007FEFDCF8EB5CE010E94C100DF91CF9197
:100350001F910F91089521E0FC01208360E04AE0A5
:100360000E948E010895CF93DF93EC0118820E94C2
:10037000BF00CE0160E04BE00E948E01CE010E94E2
:10038000BD00CE0167E040E30E948E01DF91CF9176
:100390000895CF93DF93EC018881882351F0CE013B
:1003A0000E945701807339F0CE010E94B30180E0B2
:1003B00003C080E001C081E0DF91CF910895CF9329
:1003C000DF93EC0166E047E00E948E01CE0165E01C
:1003D0004B810E948E01CE0161E14C810E948E0111
:1003E000CE0162E14C810E948E01CE010E94B301D8
:1003F000CE010E94D600DF91CF9108950F931F93F5
:10040000CF93DF93EC018B010E94570107C0CE010F
:100410000E945701807311F0188203C088818823DD
:10042000B1F7CE010E94BF00CE010E94AB01CE0108
:100430000E94D40081EE8EBD0DB407FEFDCF8EB5B7
:10044000CE010E94C100CE010E94D40080EA8EBD80
:100450000DB407FEFDCF8EB5CE01B8014C810E94D0
:10046000AE00CE010E94C100CE010E94BD00DF910E
:10047000CF911F910F9108950F931F93CF93DF9307
:10048000EC018B010E94D40081E68EBD0DB407FE05
:10049000FDCF8EB5CE01B801A8012C810E949C0031
:1004A000CE010E94C100CE0167E040E40E948E01AF
:1004B000DF91CF911F910F910895CF93DF93EC01BE
:1004C0000E94BF00CE0160E048E00E948E01DF91F3
:1004D000CF9108955A9A08955A9808959BB184E04F
:1004E00089278BB908959093C5008093C40088E153
:1004F0008093C1008EE08093C2000895E0ECF0E0AC
:10050000908195FFFDCF8093C6000895CF93DF9330
:10051000EC018881882331F021960E947E02899126
:100520008823D9F7DF91CF9108950F931F93CF932D
:10053000DF93CDB7DEB72A970FB6F894DEBF0FBEB4
:10054000CDBF00D000D000D0EDB7FEB731968E0100
:100550000F5F1F4FADB7BEB712961C930E93119746
:1005600020E031E033832283958384830E94020458
:100570008DB79EB706960FB6F8949EBF0FBE8DBF7F
:10058000C8010E9486022A960FB6F894DEBF0FBEFD
:10059000CDBFDF91CF911F910F910895E0ECF0E076
:1005A00080818823ECF78091C6000895CF93DF9374
:1005B00000D000D00F92CDB7DEB78091140190E04B
:1005C0002DB73EB7281B390B0FB6F8943EBF0FBEB0
:1005D0002DBF0DB71EB70F5F1F4F1A830983EDB7ED
:1005E000FEB7E81BF90B0FB6F894FEBF0FBEEDBFC8
:1005F0008DB79EB70196A82E892E87E690E00E94BF
:1006000073020F2EF0E1EF2EF1E0FF2EF02DC70167
:100610000E94C300C70163E071E00E941F01C7018F
:100620000E94DF01C7010E946A02C7010E947A018D
:100630008823D9F380E191E06A2D782D0E943C0255
:10064000809114018823E9F0CA2CD82C5801EE249B
:10065000FF240F2EF4E18F2EF1E09F2EF02DF601F6
:1006600081916F0190E00E949502F50111925F0166
:100670000894E11CF11CF401808190E0E816F90671
:1006800074F30F2EF0E1EF2EF1E0FF2EF02DC701F5
:1006900069E071E00E940901502E612EC701602FB0
:1006A000712F0E94FE01C7010E94C9018823D9F75A
:1006B00080E191E00E947A01882309F580E191E0D0
:1006C000652D762D0E943C02809114018823B9F09B
:1006D000780100E010E00F2EF4E1CF2EF1E0DF2EE4
:1006E000F02DF70181917F0190E00E9495020F5F4C
:1006F0001F4FF601808190E00817190794F380E1FD
:1007000091E00E946E02FF2400E111E00F2EF0EC58
:10071000CF2EDD24F02D0F2EF6EC2F2E3324F02DCE
:100720000F2EF4E18F2EF1E09F2EF02D98012C5F1B
:100730003F4F3C832B83772449803A813D83C80116
:100740000E947A01882331F0C801652D762D0E9420
:100750003C0246C0F601808188230CF041C0F101C3
:100760008081E981FA81EF0DF11D8083F394F4011A
:1007700080818F15A9F5C80169E071E00E94090127
:10078000C801652D762D0E94FE01C8010E94C90195
:100790008823D9F7C8010E947A018823D9F3C801B8
:1007A000652D762D0E943C02EB81FC81808188239F
:1007B00099F0A42CBD80EE24FF24F50181915F0106
:1007C000972D0E9495020894E11CF11CF401808190
:1007D00090E0E816F9068CF3C8010E946E02F72C2F
:1007E0008FE39CE90197F1F700C00000A8CF80E1FA
:1007F00091E00E948A000895EE0FFF1F0590F4918A
:10080000E02D0994AEE0B0E0E8E0F4E00C94B0062E
:100810000D891E8986E08C831A8309838FEF9FE7F9
:100820009E838D83AE01475E5F4FCE0101966F8937
:10083000788D0E942404EF81F885E00FF11F10826B
:100840002E96E4E00C94CC06ADE0B0E0EAE2F4E0F1
:100850000C94A2063C017D876C875A01FC0117822B
:100860001682838181FFC8C12E010894411C511C4E
:10087000F3019381EC85FD8593FD859193FF819133
:10088000FD87EC87882309F4B3C1853241F493FDD9
:10089000859193FF8191FD87EC87853229F490E063
:1008A000B3010E941806E4CFFF24EE2410E01032BA
:1008B000B0F48B3269F08C3228F4803251F08332FC
:1008C00071F40BC08D3239F0803349F411602CC0C3
:1008D0001260146029C0186027C0106125C017FD80
:1008E0002EC0282F20532A3098F416FF08C08F2DD1
:1008F000880FF82EFF0CFF0CF80EF20E15C08E2D8F
:10090000880FE82EEE0CEE0CE80EE20E10620CC022
:100910008E3221F416FD6CC1106406C08C3611F4C1
:10092000106802C0883659F4EC85FD8593FD8591E9
:1009300093FF8191FD87EC87882309F0B8CF982F2A
:100940009554933018F09052933038F424E030E00E
:10095000A20EB31E3FE339830FC0833631F08337D5
:1009600081F0833509F05AC022C0F5018081898366
:1009700022E030E0A20EB31E21E0C22ED12C4201B3
:1009800014C092E0292E312C2A0C3B1CF5018080EA
:10099000918016FF03C06F2D70E002C06FEF7FEFF4
:1009A000C4010E940D066C0151011F7715C082E041
:1009B000282E312C2A0C3B1CF5018080918016FFDB
:1009C00003C06F2D70E002C06FEF7FEFC4010E9483
:1009D00002066C011068510113FD1CC006C080E2C4
:1009E00090E0B3010E941806EA948E2D90E0C8169C
:1009F000D906A8F30FC0F40117FD859117FF819167
:100A00004F0190E0B3010E941806E110EA940894A7
:100A1000C108D108C114D10471F7E7C0843611F0C0
:100A2000893651F5F50117FF07C080819181A281B8
:100A3000B38124E030E008C080819181AA2797FD2E
:100A4000A095BA2F22E030E0A20EB31E012F0F7640
:100A5000B7FF08C0B095A095909581959F4FAF4F77
:100A6000BF4F0068BC01CD01A2012AE030E00E9426
:100A70004406D82ED4183FC0853721F41F7E2AE0C3
:100A800030E020C0197F8F36A9F0803720F48835F8
:100A900009F0AEC00BC0803721F0883709F0A8C03C
:100AA00001C0106114FF09C0146007C014FF08C022
:100AB000166006C028E030E005C020E130E002C04A
:100AC00020E132E0F50117FF07C06081718182816A
:100AD000938144E050E006C06081718180E090E045
:100AE00042E050E0A40EB51EA2010E944406D82E9A
:100AF000D418012F0F7706FF09C00E7FDF1430F4E2
:100B000004FF06C002FD04C00F7E02C01D2D01C0FF
:100B10001F2D802F90E004FF0CC0FE01ED0DF11D94
:100B20002081203311F4097E09C002FF06C01E5F38
:100B300005C086789070009709F01F5F802E992479
:100B400003FD12C000FF0DC0FD2C1E1550F4FE0C5D
:100B5000F11A1E2D06C080E290E0B3010E94180633
:100B60001F5F1E15C0F304C01E1510F4E11A01C06A
:100B7000EE2484FE0FC080E390E0B3010E941806CB
:100B800082FE1FC081FE03C088E590E010C088E7A8
:100B900090E00DC0C40186789070009791F081FCC0
:100BA00002C080E201C08BE207FD8DE290E0B3015C
:100BB0000E94180606C080E390E0B3010E94180668
:100BC000FA94DF14C0F3DA94F201ED0DF11D808187
:100BD00090E0B3010E941806DD20A9F706C080E26C
:100BE00090E0B3010E941806EA94EE20C1F740CECF
:100BF000F3018681978102C08FEF9FEF2D96E2E18E
:100C00000C94BE06FC010590615070400110D8F7AD
:100C1000809590958E0F9F1F0895FC016150704044
:100C200001900110D8F7809590958E0F9F1F089521
:100C30000F931F93CF93DF938C01EB018B8181FF87
:100C40001BC082FF0DC02E813F818C819D812817A2
:100C5000390764F4E881F9810193F983E88306C0D8
:100C6000E885F985802F0995009731F48E819F8161
:100C700001969F838E8302C00FEF1FEFC801DF91A3
:100C8000CF911F910F910895FA01AA27283051F1B1
:100C9000203181F1E8946F936E7F6E5F7F4F8F4FAD
:100CA0009F4FAF4FB1E03ED0B4E03CD0670F781F0C
:100CB000891F9A1FA11D680F791F8A1F911DA11DF1
:100CC0006A0F711D811D911DA11D20D009F468942A
:100CD0003F912AE0269F11243019305D3193DEF6D2
:100CE000CF010895462F4770405D4193B3E00FD088
:100CF000C9F7F6CF462F4F70405D4A3318F0495D73
:100D000031FD4052419302D0A9F7EACFB4E0A69555
:100D10009795879577956795BA95C9F70097610577
:100D2000710508959B01AC010A2E069457954795CD
:100D300037952795BA95C9F7620F731F841F951FC2
:100D4000A01D08952F923F924F925F926F927F92D3
:100D50008F929F92AF92BF92CF92DF92EF92FF92CB
:100D60000F931F93CF93DF93CDB7DEB7CA1BDB0B77
:100D70000FB6F894DEBF0FBECDBF09942A8839881C
:100D800048885F846E847D848C849B84AA84B98423
:100D9000C884DF80EE80FD800C811B81AA81B9812F
:100DA000CE0FD11D0FB6F894DEBF0FBECDBFED0143
:060DB0000895F894FFCF46
:100DB60025750063616E656C00726F626F7400006A
:00000001FF
